:10000000EAC000000FC100000DC100000BC10000DC
:1000100009C1000007C1000005C1000003C10000C4
:1000200001C10000FFC00000FDC00000FBC00000D7
:10003000F9C00000F7C00000F5C00000F3C00000E8
:1000400002C60000EFC000007DC30000ADC3000089
:10005000E9C00000E7C00000E5C00000E3C0000008
:100060000C94531FDFC000000000000800020100D4
:100070000003040700000000000000000102040863
:100080001020408001020408102001020408102002
:10009000040404040404040402020202020203032E
:1000A00003030303000000002300260029000000D2
:1000B0000000250028002B0000000000240027007D
:1000C0002A007C3C3E5E2B3D3F2F5B5D3B2C2A2271
:1000D0005C0000407A10F35A00A0724E180900101C
:1000E000A5D4E80000E87648170000E40B540200AD
:1000F00000CA9A3B000000E1F505000080969800D8
:10010000000040420F000000A08601000000102700
:1001100000000000E8030000000064000000000090
:100120000A00000000000100000000002C76D888C2
:10013000DC674F0823DFC1DFAE59E1B1B796E5E3D5
:10014000E453C63AE651997696E8E6C28426EB89EE
:100150008C9B62ED407C6FFCEFBC9C9F40F2BAA58B
:100160006FA5F490055A2AF75C936B6CF9676DC123
:100170001BFCE0E40D47FEF520E6B500D0ED902E27
:100180000300943577050080841E080000204E0A85
:10019000000000C80C333333330F986E12831141C3
:1001A000EF8D2114893BE65516CFFEE6DB18D1848E
:1001B0004B381BF77C1D901DA4BBE42420328472B5
:1001C0005E228100C9F124ECA1E53D275202020420
:1001D0009E0D6A1E590211241FBECFEFD8E0DEBF6C
:1001E000CDBF11E0A0E0B1E0E4E8FDE402C005907D
:1001F0000D92A03FB107D9F725E0A0EFB1E001C013
:100200001D92A83CB207E1F711E0C4EDD1E004C0B3
:100210002297FE010E94E120CC3CD107C9F707D507
:100220000C94B626EDCE24E831E0FC013183208326
:100230000895089524E831E0FC013183208301C54D
:100240000F93CF93DF93CDB7DEB76B970FB6F894CC
:10025000DEBF0FBECDBF26E040E855E260E070E0B3
:100260008EEF91E00DD261E08AE001D680EF91E05F
:10027000AFD7811106C06AE071E08EEF91E064D3E0
:10028000FFCF0FEF2FEF4FEF6AE084EA92E00E947A
:10029000F50B811106C06CE371E08EEF91E054D351
:1002A00028C068E571E084EA92E00E94940D23E1A1
:1002B00048E551E064EA72E0CE0101960E940D0D1E
:1002C000CE0101960E94150B882351F061E671E082
:1002D000CE01019639D3CE0101960E94030B05C0D1
:1002E00067E671E08EEF91E02FD3CE0101960E9478
:1002F000B00A6B960FB6F894DEBF0FBECDBFDF918C
:10030000CF910F9108958F929F92AF92BF92CF920B
:10031000DF92EF92FF920F931F93CF93DF93CDB7AE
:10032000DEB7C458D1090FB6F894DEBF0FBECDBFFB
:10033000BE016F5F7F4F80EF91E0CAD7898C9A8CA6
:10034000AB8CBC8CCD8CDE8CEF8CF8A06D897E895B
:100350008F89988D8E01025A1F4F22E043E00E9440
:10036000E521BC01CE0181589F4FD8D30F50110910
:1003700022E043E0C501B4010E94E521BC01CE01A9
:1003800087589F4FCBD30F50110922E043E0C7019C
:10039000B6010E94E521BC01CE018D589F4FBED30E
:1003A00023E148E551E064EA72E0CE0185960E94BF
:1003B0000D0DBE0161587F4FCE0183599F4FD8D399
:1003C0006EE771E0CE0183599F4F16D4BE01675886
:1003D0007F4F01D46EE771E00FD4BE016D587F4F9F
:1003E000FAD3BC018EEF91E09FD2CE0183599F4F8B
:1003F0002AD362E370E080E090E09ED4CE0185963F
:100400000E94150B882329F1BE0161587F4FCE0150
:1004100083599F4FADD36EE771E0CE0183599F4F53
:10042000EBD3BE0167587F4FD6D36EE771E0E4D3BC
:10043000BE016D587F4FCFD3BC01CE01859674D2DB
:10044000CE0183599F4FFFD2CE0185960E94030BA8
:1004500005C067E671E08EEF91E076D2CE01859619
:100460000E94B00ACE018D589F4FEDD2CE01875821
:100470009F4FE9D2CE0181589F4FE5D2CC57DF4F35
:100480000FB6F894DEBF0FBECDBFDF91CF911F91A5
:100490000F91FF90EF90DF90CF90BF90AF909F9023
:1004A0008F90089549E350E360E070E080EF91E0C1
:1004B0000EC684E891E09093F1018093F0010895D5
:1004C000FC01818D228D90E0805C9F4F821B910901
:1004D0008F7399270895FC01918D828D981731F0C3
:1004E000828DE80FF11D858D90E008958FEF9FEFCD
:1004F0000895FC01918D828D981761F0828DDF0146
:10050000A80FB11D5D968C91928D9F5F9F73928F06
:1005100090E008958FEF9FEF089589EF93E0892B86
:1005200041F080E090E0892B21F063D181110C949F
:1005300000000895FC01848DDF01A80FB11DA35AAE
:10054000BF4F2C91848D90E001968F739927848FF3
:10055000A689B7892C93A089B1898C9180648C93EA
:10056000938D848D981306C00288F389E02D8081D5
:100570008F7D80830895CF93DF93EC01888D88234E
:10058000C1F0EA89FB89808185FD05C0A889B98908
:100590008C9186FD0EC00FB607FCF5CF808185FFDC
:1005A000F2CFA889B9898C9185FFEDCFCE01C2DF4A
:1005B000E8CFDF91CF910895CF92DF92FF920F9312
:1005C0001F93CF93DF931F92CDB7DEB76C0181E00D
:1005D000D60158968C9358975B969C915B975C9646
:1005E0008C915C97981307C05096ED91FC915197B0
:1005F000808185FD2DC0F601038D10E00F5F1F4F38
:100600000F731127F02EF601848DF81210C00FB66B
:1006100007FCF9CFD6015096ED91FC91519780815E
:1006200085FFF1CFC601698385DF6981ECCF838DBA
:10063000E80FF11DE35AFF4F6083D6015B960C93E0
:100640005B975296ED91FC915397808180620CC02C
:10065000D6015696ED91FC91579760835096ED9197
:10066000FC91519780818064808381E090E00F90BD
:10067000DF91CF911F910F91FF90DF90CF90089560
:10068000BF92CF92DF92EF92FF92CF93DF93EC0174
:100690006A017B01B22EE889F98982E080834115E5
:1006A00081EE580761057105A1F060E079E08DE306
:1006B00090E0A70196010E94B32021503109410921
:1006C00051095695479537952795211580E13807AB
:1006D00098F0E889F989108260E874E88EE190E08A
:1006E000A70196010E94B320215031094109510907
:1006F0005695479537952795EC85FD853083EE8592
:10070000FF852083188EEC89FD89B082EA89FB89F8
:10071000808180618083EA89FB8980818860808311
:10072000EA89FB89808180688083EA89FB898081EE
:100730008F7D8083DF91CF91FF90EF90DF90CF90FE
:10074000BF9008951F920F920FB60F9211242F930E
:100750008F939F93EF93FF93E0910E02F0910F021E
:100760008081E0911402F091150282FD12C0908107
:10077000809117028F5F8F7320911802821751F0BA
:10078000E0911702F0E0E250FE4F958F8093170240
:1007900001C08081FF91EF919F918F912F910F90D8
:1007A0000FBE0F901F9018951F920F920FB60F92C9
:1007B00011242F933F934F935F936F937F938F9366
:1007C0009F93AF93BF93EF93FF938EEF91E0B2DED1
:1007D000FF91EF91BF91AF919F918F917F916F9119
:1007E0005F914F913F912F910F900FBE0F901F90EF
:1007F00018958EEF91E064DE21E0892B09F420E06A
:10080000822F0895109201021092000288EE93E068
:10081000A0E0B0E08093020290930302A093040250
:10082000B093050282E991E09093FF018093FE016D
:1008300085EC90E090930B0280930A0284EC90E0A8
:1008400090930D0280930C0280EC90E090930F0245
:1008500080930E0281EC90E090931102809310023D
:1008600082EC90E0909313028093120286EC90E069
:10087000909315028093140210921702109218029E
:100880001092190210921A020895CF92DF92EF92FD
:10089000FF920F931F93CF93DF937C016A01EB01CB
:1008A00000E010E00C151D0571F06991D701ED9184
:1008B000FC910190F081E02DC7010995892B19F079
:1008C0000F5F1F4FEFCFC801DF91CF911F910F91A5
:1008D000FF90EF90DF90CF9008956115710581F042
:1008E000DB010D900020E9F7AD0141505109461B95
:1008F000570BDC01ED91FC910280F381E02D09940E
:1009000080E090E00895DC01ED91FC91DB0114960C
:100910004D915C9115976D917C910280F381E02D52
:1009200009946EE971E0D9CF0F931F93CF93DF93B2
:10093000EC01E9DF8C01CE01F4DF800F911FDF9124
:10094000CF911F910F9108950F931F93CF93DF9332
:10095000EC01C3DF8C01CE01E4DF800F911FDF913A
:10096000CF911F910F9108958F929F92AF92BF9256
:10097000DF92EF92FF920F931F93CF93DF93CDB748
:10098000DEB7A1970FB6F894DEBF0FBECDBF7C01D6
:10099000F42FD52ECB0119A2223008F42AE08E01C3
:1009A0000F5D1F4F822E912CA12CB12C6F2F7D2D0E
:1009B000A50194010E94B320F22FD32ECA01015049
:1009C00011096A3014F4E0E301C0E7E3E60FD8014F
:1009D000EC93232B242B252B49F7B801C7017DDF8E
:1009E000A1960FB6F894DEBF0FBECDBFDF91CF91B9
:1009F0001F910F91FF90EF90DF90BF90AF909F906D
:100A00008F9008952115310541F4DC01ED91FC91A1
:100A10000190F081E02D642F0994A6CF0F931F93CE
:100A2000CF93DF93EC019A01462F50E060E070E035
:100A3000E9DF8C01CE0175DF800F911FDF91CF912F
:100A40001F910F910895FC01808191810C949D224A
:100A5000CF93DF93EC0188819981009711F00E9478
:100A60009D22198218821D821C821B821A82DF91AC
:100A7000CF9108950F931F93CF93DF93EC018B01D8
:100A80006F5F7F4F888199810E942C23009731F0FE
:100A9000998388831B830A8381E001C080E0DF9112
:100AA000CF911F910F910895CF93DF93EC0188812F
:100AB0009981892B29F08A819B818617970758F4A1
:100AC000CE01D8DF882341F08C819D81892B19F4D8
:100AD000E881F981108281E0DF91CF910895EF9252
:100AE000FF920F931F93CF93DF93EC017B018A0159
:100AF000BA01DADF811103C0CE01AADF07C01D836E
:100B00000C83B701888199810E941424CE01DF9162
:100B1000CF911F910F91FF90EF900895FC011182EA
:100B2000108213821282158214826115710551F0B0
:100B3000FB0101900020E9F7AF0141505109461B2C
:100B4000570BCDCF0895CF93DF93EC01FB018617B0
:100B5000970751F0608171816115710521F0448121
:100B60005581BDDF01C074DFCE01DF91CF910895C3
:100B7000FC01118210821382128215821482E3CF4B
:100B8000EF92FF920F931F93CF93DF93EC017B01C2
:100B90000C811D816115710511F480E015C04115AE
:100BA000510589F0040F151FB8017EDF8823A9F3D2
:100BB000288139818C819D81B701820F931F0E940A
:100BC00014241D830C8381E0DF91CF911F910F913D
:100BD000FF90EF900895CF93DF93EC01FB014481E8
:100BE000558160817181CCDF811102C0CE0130DF7F
:100BF000CE01DF91CF910895CF93DF93EC01611582
:100C0000710561F0FB0101900020E9F7AF0141504F
:100C10005109461B570BB4DF811102C0CE0118DF0A
:100C2000CE01DF91CF9108950E94EF230895BBD0AC
:100C3000FDDF06DBCDE8D2E066DB2097E9F36DDC73
:100C4000FBCF0C949D221F920F920FB60F9211248E
:100C50002F933F938F939F93AF93BF9380919C0269
:100C600090919D02A0919E02B0919F0230919B02B3
:100C700023E0230F2D3720F40196A11DB11D05C0DF
:100C800026E8230F0296A11DB11D20939B0280939D
:100C90009C0290939D02A0939E02B0939F0280912C
:100CA000A0029091A102A091A202B091A30201968C
:100CB000A11DB11D8093A0029093A102A093A20256
:100CC000B093A302BF91AF919F918F913F912F91CC
:100CD0000F900FBE0F901F9018952FB7F89460914A
:100CE0009C0270919D0280919E0290919F022FBF65
:100CF00008953FB7F8948091A0029091A102A0912D
:100D0000A202B091A30226B5A89B05C02F3F19F0FF
:100D10000196A11DB11D3FBF6627782F892F9A2FFD
:100D2000620F711D811D911D42E0660F771F881FA4
:100D3000991F4A95D1F708958F929F92AF92BF92D3
:100D4000CF92DF92EF92FF926B017C01D2DF4B01D9
:100D50005C01C114D104E104F104E1F01ED1C9DF4A
:100D6000681979098A099B09683E734081059105D4
:100D700080F321E0C21AD108E108F10888EE880E5C
:100D800083E0981EA11CB11CC114D104E104F1043C
:100D900031F7DFCFFF90EF90DF90CF90BF90AF9013
:100DA0009F908F900895789484B5826084BD84B5B7
:100DB000816084BD85B5826085BD85B5816085BD56
:100DC000EEE6F0E0808181608083E1E8F0E010826F
:100DD000808182608083808181608083E0E8F0E0B0
:100DE000808181608083E1EBF0E08081846080839A
:100DF000E0EBF0E0808181608083EAE7F0E08081D1
:100E00008460808380818260808380818160808330
:100E10008081806880831092C1000895833081F0C2
:100E200028F4813099F08230A1F008958730A9F03C
:100E30008830B9F08430D1F4809180008F7D03C078
:100E4000809180008F7780938000089584B58F779C
:100E500002C084B58F7D84BD08958091B0008F77E6
:100E600003C08091B0008F7D8093B0000895CF9330
:100E7000DF9390E0FC01E458FF4F2491FC01E05720
:100E8000FF4F8491882349F190E0880F991FFC015E
:100E9000E854FF4FA591B49182559F4FFC01C59135
:100EA000D4919FB7611108C0F8948C91209582234A
:100EB0008C93888182230AC0623051F4F8948C911B
:100EC000322F309583238C938881822B888304C0B2
:100ED000F8948C91822B8C939FBFDF91CF910895D2
:100EE0000F931F93CF93DF931F92CDB7DEB7282FB9
:100EF00030E0F901E859FF4F8491F901E458FF4FC0
:100F00001491F901E057FF4F04910023C1F08823A9
:100F100019F0698383DF6981E02FF0E0EE0FFF1F96
:100F2000E255FF4FA591B4919FB7F8948C91611150
:100F300003C01095812301C0812B8C939FBF0F901C
:100F4000DF91CF911F910F910895CF93DF93282FB9
:100F500030E0F901E859FF4F8491F901E458FF4F5F
:100F6000D491F901E057FF4FC491CC2389F081114E
:100F700055DFEC2FF0E0EE0FFF1FEC55FF4FA59172
:100F8000B4912C912D2381E090E021F480E002C007
:100F900080E090E0DF91CF910895089524E831E05A
:100FA000FC0131832083089524E831E0FC01318382
:100FB000208347CEAF92BF92CF92DF92EF92FF9203
:100FC0000F931F93CF93DF931F92CDB7DEB7F82E09
:100FD000E62ED42EC22E87E0A82EB12C30E001E000
:100FE00010E0330F60E08F2D39837ADFF8010A2C8F
:100FF00001C0EE0F0A94EAF76C2D6E238D2D70DF81
:1010000061E08F2D6DDF8E2DA0DF3981892B09F0F6
:10101000316081E0A81AB10820F7832F0F90DF918B
:10102000CF911F910F91FF90EF90DF90CF90BF90E5
:10103000AF9008950F931F93CF93DF938C01EB0133
:1010400088E2FB0111928A95E9F74BE050E06FEAE4
:1010500071E0CE010E941B241B8641E050E060E05D
:1010600070E04C875D876E877F87F80143815481EC
:1010700065817681488B598B6A8B7B8B46E050E08B
:1010800060E070E04C8B5D8B6E8B7F8B1CA21DA291
:101090001EA21FA24AE058EE6CE173EC488F598FF4
:1010A0006A8F7B8F4AE058EE6CE173E44C8F5D8F62
:1010B0006E8F7F8F43EA5FEA60E27DE348A359A326
:1010C0006AA37BA3DF91CF911F910F910895FC013B
:1010D0008BEB91E091838083438354836583768394
:1010E0001086178281E0858708950F931F93CF9311
:1010F000DF93EC01062F142F8D858823C1F063E563
:1011000070E083E095E00E94F61D602F83E095E09B
:101110000E94A51D612F83E095E00E94A51D83E03C
:1011200095E0DF91CF911F910F910C94681E60E0C4
:101130008C85D6DE202F4A856B8589853BDF212F64
:101140004A856B85898536DF61E08C85DF91CF919B
:101150001F910F91C5CE1F93CF93DF93EC01162FF4
:101160008D858823E1F063E570E083E095E00E94DF
:10117000F61D612F83E095E00E94A51D83E095E0B8
:101180000E94681E41E050E063E570E083E095E076
:101190000E94661E83E095E00E94561D13C060E029
:1011A0008C859EDE212F20684A856B85898502DF2C
:1011B0002FEF4A856B858985FDDE182F61E08C85D0
:1011C0008FDE812FDF91CF911F91089560E0C3CF13
:1011D000CF93DF93EC018D85882329F083E095E0A0
:1011E0000E94E31D0FC061E08C8541DE61E08985CE
:1011F0003EDE61E0898574DE61E08A8538DE60E08C
:101200008B8535DECE01E2DF853E41F040E150E0E6
:10121000682F8EEF91E002DC80E005C048E06DE2CF
:10122000CE0163DF81E0DF91CF9108950F931F938B
:10123000CF93DF93EC01162F8D85882321F163E591
:1012400070E083E095E00E94F61D612F83E095E059
:101250000E94A51D83E095E00E94681E42E050E0D8
:1012600063E570E083E095E00E94661E83E095E010
:101270000E94561DC82F83E095E00E94561D982FAE
:1012800088278C2B1AC060E08C852ADE212F206CE9
:101290004A856B8589858EDE2FEF4A856B8589852A
:1012A00089DE082F2FEF4A856B85898583DE10E064
:1012B000182B61E08C8514DEC801DF91CF911F915E
:1012C0000F91089562E3B2CF64E3B0CF66E3AECF8F
:1012D0000F931F93CF93DF938C01EB0184E2FB010B
:1012E00011928A95E9F784E290E0A0E0B0E088836B
:1012F0009983AA83BB83F80183819481A581B681F8
:101300008C839D83AE83BF8381E090E0A0E0B0E05A
:1013100088879987AA87BB87188A198A1A8A1B8A9D
:10132000C801D0DFBC01882777FD8095982F0E94E7
:10133000F6202FE632E143E85BE30E9482212AE0B7
:1013400038EE4CE151E40E9482216C8B7D8B8E8BB8
:101350009F8BC801B9DFBC01882777FD8095982F46
:101360000E94F6202FE632E143E85BE30E948221EF
:101370002AE038EE4CE151E40E948221688F798F97
:101380008A8F9B8FC801A2DFBC01882777FD8095DB
:10139000982F0E94F6202FE632E143E85BE30E949B
:1013A00082212AE038EE4CE151E40E9482216C8FC8
:1013B0007D8F8E8F9F8F81E0DF91CF911F910F9155
:1013C0000895CF93DF931F92CDB7DEB76983DC0119
:1013D000ED91FC910280F381E02D41E050E0BE01EF
:1013E0006F5F7F4F09950F90DF91CF910895CF9355
:1013F000DF93EC01898D9A8D009759F0FC011382DF
:1014000012820E940B17E98DFA8D22813381232BE2
:1014100031F081E090E09B838A8380E090E0DF916F
:10142000CF910895FC01818D928D009711F00C945D
:101430007D140895CF93DF931F92CDB7DEB741E0BF
:1014400050E0BE016F5F7F4F0E949312019719F425
:10145000898190E002C08FEF9FEF0F90DF91CF91D5
:101460000895FC01818D928D009709F0E3CF8FEFF5
:101470009FEF08950F931F93CF93DF938C01FC018F
:10148000818D928D0097B1F0D5DFEC018F3FFFEF9A
:101490009F0799F0F801818D928DFC01428553855B
:1014A0006485758541505109610971090E94E213F3
:1014B000CE0105C080E090E002C08FEF9FEFDF918A
:1014C000CF911F910F910895CF92DF92EF92FF92EB
:1014D0000F931F93CF93DF93EC017B016A011B8273
:1014E0001A8208EE13E020E030E00C831D832E8387
:1014F0003F8389EC91E0998388838DE190E00E949D
:1015000005229A8F898F009779F02DE1F701DC0190
:1015100001900D922A95E1F74CE050E0B601CE0122
:101520000C960E941B24188EDF91CF911F910F9172
:10153000FF90EF90DF90CF900895FC01138212820C
:1015400048EE53E060E070E0448355836683778320
:1015500089EC91E091838083128E118E1486089518
:1015600029EC31E0FC01318320830895DC01599698
:10157000ED91FC915A97309729F0628573858485A7
:10158000958508956FEF7FEFCB010895DC015996A3
:10159000ED91FC915A97309729F063897489858978
:1015A0009689089560E070E0CB010895CF92DF92B4
:1015B000EF92FF92CF93DF93EC01898D9A8D892B67
:1015C000C9F0CE01E3DF6B017C01CE01CFDFA701C3
:1015D0009601261B370B480B590BDA01C9018115FF
:1015E00030E89307A105B10538F08FEF9FE7A0E041
:1015F000B0E002C080E090E0DF91CF91FF90EF90EB
:10160000DF90CF900895CF93DF93EC01898D9A8D71
:10161000009741F00E94C214898D9A8D0E949D22EC
:101620001A8E198EDF91CF910895DC015996ED91B4
:10163000FC915A97309721F081E09581911101C07A
:1016400080E00895442339F00E94E41691E081116E
:1016500003C090E001C091E0892F0895CF93DF93FC
:10166000FB0120813181FC01E20FF31FE081EF32A9
:1016700011F42F5F3F4FDA01E0E0F0E0EC01C20F20
:10168000D31FC881CF3249F0CC2339F031962F5F78
:101690003F4FCD93EC30F10589F7E40FF51F108231
:1016A000FC01E20FF31F40814F3211F42F5F3F4FD7
:1016B000FB0131832083FC01E20FF31F81E0908165
:1016C000911101C080E0DF91CF9108954F925F9218
:1016D0006F927F928F929F92AF92BF92CF92DF9242
:1016E000EF92FF920F931F93CF93DF93CDB7DEB7A7
:1016F000C954D1090FB6F894DEBF0FBECDBF5C014F
:101700006B013A01490119A218A28BED91E09F8F5C
:101710008E8F1BA21C821B829A8389831E822A962B
:101720001FAE1EAE2A978B017E018EE1E80EF11CE2
:1017300044244394AE01455C5F4FBE01685B7F4F1C
:10174000C5018CDF582E482F44259401BE01655CED
:101750007F4FC801F3010995811108C00C151D05C3
:1017600019F0C8010E94C21480E027C05520B9F0CA
:1017700021E0AE01455C5F4FB801C7010E94EC1546
:10178000582E0C151D0599F0C8010E94C214552051
:1017900059F3902F812F8701E92EF82ECBCF0C150E
:1017A0001D0519F0C8010E94C21481E006C08823FB
:1017B000D9F28E010F5F1F4FECCFC75BDF4F0FB623
:1017C000F894DEBF0FBECDBFDF91CF911F910F9177
:1017D000FF90EF90DF90CF90BF90AF909F908F9051
:1017E0007F906F905F904F900895EF920F931F93AB
:1017F000CF93DF93EC01E02E022F242F462F61E0E0
:10180000F3D2811102C080E01CC08E01035F1F4F24
:1018100041E0BE01C8010E943D1C882351F0B8017F
:10182000CE018B9631D691E0811101C090E0892FD5
:1018300008C040E0BE01C8010E943D1C882319F386
:10184000EECFDF91CF911F910F91EF900895FC01A2
:10185000DB0112968D919C911397938382838BED7C
:1018600091E09183808314968C91149784831596CC
:101870008C911597858316964D915D916D917C9114
:10188000199746835783608771871A964D915D91AA
:101890006D917C911D9742875387648775871E964B
:1018A0004D915D916D917C91519746875787608BE3
:1018B000718B52968C915297828B53964D915D917C
:1018C0006D917C915697438B548B658B768B579695
:1018D0004D915D916D917C915A97478B508F618F9F
:1018E000728F5B968D919C915C97948F838F0895F6
:1018F0004F925F926F927F928F929F92AF92BF9220
:10190000CF92DF92EF92FF920F931F93CF93DF93CB
:10191000CDB7DEB7C754D1090FB6F894DEBF0FBEFE
:10192000CDBF6C014A013901655D7F4F5E018EE1DB
:10193000A80EB11CC5018BDF1C821B828BED91E0D0
:101940009A8389831E828401FE0131967F015A2C7D
:101950004B2C6FE270E0C8010E9409240097D9F176
:10196000F80120812F3219F40F5F1F4FF2CF801B37
:101970008D3008F08CE0A82EB12CA501B801CE0165
:10198000CB960E941B24EBE3F0E0EC0FFD1FEA0D69
:10199000FB1D1082C701F6D721E0AE01455C5F4F09
:1019A000652D742DC7010E94EC15811109C0F60147
:1019B000138212828BED91E091838083158214C093
:1019C0000A0D1B1D852D942DDDD7C2015E2C4F2CD9
:1019D000E92EF82EBECF08191909F30111830083EF
:1019E000652D742DC60133DFC601C95BDF4F0FB60D
:1019F000F894DEBF0FBECDBFDF91CF911F910F9145
:101A0000FF90EF90DF90CF90BF90AF909F908F901E
:101A10007F906F905F904F9008959F92AF92BF928A
:101A2000CF92DF92EF92FF920F931F93CF93DF93AA
:101A3000CDB7DEB7C955D1090FB6F894DEBF0FBEDA
:101A4000CDBF7C016B015A01922E9E01285A3F4F57
:101A5000CE01CB964DDF6A960EAD1FAD6A970A0D8B
:101A60001B1DF8018081811109C0BE01655C7F4F9B
:101A7000CE010196ECDE45ED51E03DC019A218A261
:101A80008BED91E09F8F8E8F1BA221968FAD2197BA
:101A9000811103C0C70151DD33C08250823060F430
:101AA000B601655D7F4F292DA801CE014E960E949B
:101AB000EC1581110FC0EECF292DA801BE01655C88
:101AC0007F4FCE014E960E94EC15882319F3CE016C
:101AD000CB9658D7892D867039F049A95AA96BA998
:101AE0007CA9CE014E966ED6BE01625E7F4FCE01BE
:101AF0000196ADDEA801BE016F5F7F4FC701E4DC38
:101B0000C701C75ADF4F0FB6F894DEBF0FBECDBF77
:101B1000DF91CF911F910F91FF90EF90DF90CF90C9
:101B2000BF90AF909F900895FB01BC01655D7F4F12
:101B300020E030E042E25BE0CF01C8CD1092A90284
:101B40001092AA021092AD021092AF0282E090E0D1
:101B5000A0E0B0E08093B1029093B202A093B302F0
:101B6000B093B4021092C8021092D2021092D10225
:101B70008BED91E09093D0028093CF021092D4022B
:101B800008959091F7029F3F39F48EBD00000DB487
:101B900007FEFDCF8EB50895F894E091F302F09121
:101BA000F4024091EF02342F3095A091F502B091EC
:101BB000F6025091F002652F609598E02081232372
:101BC00020832C9187FF02C0252B01C026232C9354
:101BD0002081242B2083880F915081F70000000082
:101BE0000000000080818323808378940895809191
:101BF000F7028F3F39F48EBD00000DB407FEFDCF14
:101C00008EB50895F894E091F502F091F602808186
:101C10009091F002892B8083E091F302F091F4021D
:101C20003091EF02A091F102B091F2025091EE02D8
:101C3000432F409598E080E02081232B2083880F5C
:101C40002C91252309F0816020812423208300002A
:101C50000000915089F7789408952CB5982F9370CF
:101C60002C7F922B9CBD9DB582FB882780F99E7F9F
:101C7000982B9DBD089561E0FC01848131C960E02D
:101C8000FC0184812DC9CF93DF93EC018E818823E1
:101C900079F08F8198859C012F5F3F4F38872F8384
:101CA0008230924010F4A3DFF4CFCE01E4DF1E8235
:101CB000DF91CF910895673028F026E1FC0125835C
:101CC00080E00895633079F028F46130A1F062304B
:101CD00041F005C0653059F040F0663051F084E0C5
:101CE0000BC085E009C081E007C086E005C082E046
:101CF00003C083E001C080E0B0DF81E008950F936E
:101D00001F93CF93DF93EB010E946D068B016FDF72
:101D10008F3F49F00E946D06601B710B6C177D07A9
:101D2000B0F380E001C081E0DF91CF911F910F916E
:101D30000895CF92DF92FF920F931F93CF93DF937B
:101D400000D000D0CDB7DEB76C01F62E29833A83E0
:101D50004B835C8398DFC60192DF6CE271E0C601C1
:101D6000CEDF8F2D80640DDF08E110E05C814B81B8
:101D70003A812981DA01C901002E04C0B695A795E0
:101D8000979587950A94D2F729833A834B835C838E
:101D9000F8DE0850110929813A814B815C81083FA6
:101DA0008FEF180739F7FF2029F0E8E0FE1621F041
:101DB0008FEF03C085E901C087E8E3DE10E017DF9D
:101DC000F601828787FF04C01F3F11F01F5FF7CF26
:101DD0000F900F900F900F90DF91CF911F910F9167
:101DE000FF90DF90CF900895AF92BF92CF92DF9295
:101DF000EF92FF920F931F93CF93DF93EC01B62ED8
:101E00001B8619861E821D821C864C832093F90234
:101E10000093F802E092F7020E946D068B0161E0E8
:101E20008C8125D8CE0127DF8FEFE81609F45BC03F
:101E300060E08091F8021BD861E08091F90217D828
:101E400061E08091F70213D88091F702992787FD0E
:101E50009095FC01E057FF4FE491F0E0EE0FFF1F7B
:101E6000E255FF4F259134913093F4022093F30211
:101E7000FC01E458FF4F84918093EF028091F902B6
:101E8000992787FD9095FC01E057FF4FE491F0E022
:101E9000EE0FFF1FE255FF4F259134913093F6026C
:101EA0002093F502FC01E458FF4F84918093F002E7
:101EB0008091F802992787FD9095FC01E057FF4F2C
:101EC000E491F0E0EE0FFF1FEC55FF4F25913491A8
:101ED0003093F2022093F102FC01E458FF4F849109
:101EE0008093EE0204C00E947D2083E0B6DE2AE0EB
:101EF000A22E8FEF46DEAA94E1F7CE01C0DE20E0ED
:101F000030E0A90160E0CE0114DFF82E8A8781E07D
:101F1000F81649F00E946D06601B710B613D774019
:101F200070F381E046C02AEA31E040E050E068E02A
:101F3000CE01FFDE82FF02C0FB860CC094E0F92ECA
:101F400056DE8A87FA94E1F78A3A11F082E031C0CE
:101F500082E08B878B85823031F4C12CD12CE12C2F
:101F600080E4F82E03C0C12CD12C760120E030E0B3
:101F7000A90167E3CE01DDDEA701960169E2CE018A
:101F8000D8DE8A87882349F00E946D06601B710B9A
:101F9000613D774058F388E00CC08B858230B1F406
:101FA00020E030E0A9016AE3CE01C3DE882329F0F6
:101FB00086E08D83CE015FDE1EC019DE807C803C12
:101FC00011F483E08B8713DE12DE11DECE0153DEC7
:101FD0008091F7028F3F69F46B2DCE01DF91CF9195
:101FE0001F910F91FF90EF90DF90CF90BF90AF9037
:101FF00062CEAA24A3948A2DDF91CF911F910F91D5
:10200000FF90EF90DF90CF90BF90AF9008950F9327
:102010001F93CF93DF93EC010E946D068B01E7DDE8
:102020008A878F3F49F40E946D06601B710B6D32E9
:102030007140A8F38FE003C08E3F31F08DE08D83B7
:10204000CE0119DE80E001C081E0DF91CF911F91C8
:102050000F910895CF92DF92EF92FF920F931F930B
:10206000CF93DF93EC0169010115110509F45DC0FF
:10207000C801820F931F8130924008F058C08E81B2
:10208000882371F088819981AA81BB8148175907FB
:102090006A077B0729F48F819885C816D90600F551
:1020A000488359836A837B838B85833039F0E9E0E9
:1020B000440F551F661F771FEA95D1F79A01AB01B0
:1020C00061E1CE0136DE882319F083E08D832FC0D5
:1020D000CE019DDF882359F118861F8281E08E830F
:1020E0008F8198858C159D0538F481DD8F819885C9
:1020F000019698878F83F4CF6701E00EF11ECE140E
:10210000DF0429F074DDF60181936F01F8CF8F8130
:102110009885800F911F98878F832985222319F036
:102120008115924010F0CE01AEDD81E003C0CE01FA
:10213000A2DD80E0DF91CF911F910F91FF90EF9092
:10214000DF90CF900895EF92FF920F931F93790144
:1021500000E012E020E030E07DDF1F910F91FF9062
:10216000EF900895AF92BF92CF92DF92EF92FF92DD
:102170000F931F93CF93DF9300D0CDB7DEB78C01C1
:10218000862FF8019485992351F1DA01E12CF12C85
:10219000A12CB12CED91F0E0EB259F0164E0359589
:1021A00027956A95E1F72E273F27BA2CAA24A22665
:1021B000B326F901FE2FEE27F295F07FAE26BF265B
:1021C00065E0220F331F6A95E1F7A226B326FFEFE1
:1021D000EF1AFF0AE11492E0F906E1F603C0AA241F
:1021E000AA94BA2C49835A83CCDC4981E42E5A81C3
:1021F000F52EC12CD12CF70181917F01C2DCFFEFBC
:10220000CF1ADF0AC11482E0D806A9F78B2DB9DCFA
:102210008A2DB7DCECDCF80182878F71853031F0D4
:1022200081E18583C80127DD80E001C081E00F9056
:102230000F90DF91CF911F910F91FF90EF90DF9062
:10224000CF90BF90AF9008950F931F93CF93DF93DC
:10225000EC018901411551056105710511F482E117
:102260002DC08B85833039F0E9E0440F551F661F80
:10227000771FEA95D1F79A01AB0168E1CE0159DDEC
:10228000882311F084E01AC0A8016EEFCE016ADF46
:102290008823A9F068E572E0CE0131DD811102C02A
:1022A00085E10CC020E030E0A9016DE0CE0141DD08
:1022B000811103C09CDC882331F084E18D83CE0141
:1022C000DADC80E003C0CE01D6DC81E0DF91CF9183
:1022D0001F910F910895CF93DF93EC019C012A5F2A
:1022E0003F4F41E050E060E070E08B8D9C8D0E949C
:1022F000D81A8823A1F04F89588D698D7A8D452B86
:10230000462B472B71F44E815F81688579854F8B11
:10231000588F698F7A8F8C8180688C8302C080E0AF
:1023200001C081E0DF91CF910895CF92DF92EF92CB
:10233000FF921F93CF93DF93EC01CDDF811102C099
:1023400080E04AC0EB8DFC8DCE80DF80E884F9848C
:1023500082E0C81AD108E108F108058404C0CC0C59
:10236000DD1CEE1CFF1C0A94D2F746855785608958
:102370007189C40ED51EE61EF71E148181E0C81AAD
:10238000D108E108F108112359F0C701B601610F26
:10239000711D811D911D5AD7882391F21150F3CFE1
:1023A000EB8DFC8DC12C82E0D82EE12CF12C058424
:1023B00004C0CC0CDD1CEE1CFF1C0A94D2F74B8928
:1023C0005C896D897E894C0D5D1D6E1D7F1D4B8B5B
:1023D0005C8B6D8B7E8B81E0DF91CF911F91FF90A5
:1023E000EF90DF90CF900895CF93DF93EC01462FCD
:1023F0006E857F8588899989EFD6882341F08A89FF
:1024000020E2829FC00111248D5F9C4F02C080E0BA
:1024100090E0DF91CF910895282FFB018BE030E20F
:1024200031938150E9F7A22FB92F20E037E09D9139
:10243000992319F19E3219F0E2ECF0E008C03A302D
:1024400011F128E03AE0F3CF31964917E1F04491D9
:102450004111FACF3217B8F04FED490F4E3598F4CD
:1024600041E0420FFB01E20FF11D2FE9290F2A3154
:1024700008F490529083242FDACF81E0FB01908101
:10248000903209F480E008950F931F93CF93DF9368
:10249000EC018B018D81882311F080E03FC0FB01AE
:1024A00087898031B1F482E08D831F8A188E198E5E
:1024B0001A8E408D518D60E070E095E0440F551FFD
:1024C000661F771F9A95D1F74B8B5C8B6D8B7E8B3C
:1024D00014C0803211F783E08D83FB01428D538D50
:1024E000648D758D4F8B588F698F7A8F9E012D5E0D
:1024F0003F4FC80153D7882381F21C8F0B8F81E097
:102500008C831E821F82188619861A861B861C865B
:102510001D861E861F86188A198A1A8ADF91CF9116
:102520001F910F9108952F923F924F925F926F9259
:102530007F928F929F92AF92BF92CF92DF92EF9253
:10254000FF920F931F93CF93DF93EC016B015A011E
:102550008D81811103C08FEF9FEFD7C08C8180FFE9
:10256000FACF4B895C896D897E898A859B85AC858C
:10257000BD852501612C712C8A019B01081B190B5B
:102580002A0B3B0B041515052605370518F45A01CF
:10259000A81AB90A25011E0126E0220E311C411499
:1025A000510409F47AC04A855B856C857D854A01B2
:1025B00081E09822ED818A019B01F9E0369527950B
:1025C00017950795FA95D1F78B8D9C8DE23051F4D4
:1025D000FC01628D738D848D958D600F711F821F3C
:1025E000931F3DC0FC0174807A9470228114910481
:1025F000C1F4711016C0452B462B472B49F48F8927
:10260000988DA98DBA8D8E839F83A887B98709C0BD
:102610004E815F816885798591013DD6882309F4D3
:102620009ACFEB8DFC8D6E817F8188859985625074
:10263000710981099109058404C0660F771F881FFD
:10264000991F0A94D2F70685178520893189600F72
:10265000711F821F931F670D711D811D911D20E049
:1026600032E02819390932012415350508F43901F9
:102670002C8126FD04C06114F2E07F0699F50091DB
:10268000060110910701209108013091090160179E
:1026900071078207930719F425C0C50136C076017A
:1026A00083019401AB01BC0180910103909102036D
:1026B000D1DC882309F44FCFC60CD71C04C0E81B1B
:1026C000F90BCE0EDF1E8A859B85AC85BD85860DF8
:1026D000971DA11DB11D8A879B87AC87BD874618B2
:1026E00057085DCF40E078D5882309F434CFC40182
:1026F0008D5F9C4FD6019C01260D371DFC01E21712
:10270000F307E9F241914D93FACFDF91CF911F91F9
:102710000F91FF90EF90DF90CF90BF90AF909F9080
:102720008F907F906F905F904F903F902F90089583
:10273000FF920F931F93CF93DF931F92CDB7DEB716
:102740008C01FC018581823018F480E090E033C078
:10275000F8014285538564857585A5E07695679572
:1027600057954795AA95D1F7F42FFF70FF2E41E0BA
:1027700050E0BE016F5F7F4FC801D5DE019719F4AD
:10278000298130E002C02FEF3FEF2F3F3F4FE9F2AA
:10279000F8014285538564857585415E5F4F6F4FB3
:1027A0007F4F4287538764877587F0E2FF9EC001A1
:1027B00011248D5F9C4F0F90DF91CF911F910F914E
:1027C000FF9008954F925F926F927F92AF92BF9267
:1027D000CF92DF92EF92FF920F931F93CF93DF93ED
:1027E000EC016A017B012D81222309F456C08B89FB
:1027F0009C89AD89BE8984179507A607B70708F499
:102800004CC04DC08A859B85AC85BD85EB8DFC8D0C
:10281000E585F0E03996AC01BD01415051096109EF
:1028200071090E2E04C076956795579547950A94C1
:10283000D2F797018601015011092109310904C01D
:102840003695279517950795EA95D2F7041715073A
:1028500026073707A8F58F89988DA98DBA8D8E83A5
:102860009F83A887B987280139015E0186E0A80EF9
:10287000B11C411451046104710459F14E815F810E
:102880006885798595018B8D9C8D05D591E0491AD8
:102890005108610871088111ECCF80E01FC022301F
:1028A000C1F0C114D104E104F10409F0ABCF1E82E0
:1028B0001F82188619861A861B861C861D860DC0E7
:1028C000892B8A2B8B2B39F2041B150B260B370B0C
:1028D000CACFCA86DB86EC86FD8681E0DF91CF9188
:1028E0001F910F91FF90EF90DF90CF90BF90AF902E
:1028F0007F906F905F904F9008950F931F93CF93A9
:10290000DF93EC018D818823B9F18C8187FF2FC083
:1029100061E0CE0169DD8C01009771F18D8182301B
:1029200048F44B895C896D897E89F801448F558F05
:10293000668F778F4F89588D698D7A8DF801538F07
:10294000428F758B648BE091FA02F091FB02309715
:1029500059F0B8016A5E7F4FC80148960995F801A1
:10296000808D918D938B828B8C818F778C83DF917F
:10297000CF911F910F91F7C380E0DF91CF911F910D
:102980000F910895CF93DF93EC01B7DF882319F0FF
:102990001D8281E001C080E0DF91CF9108954F92C8
:1029A0005F926F927F92AF92BF92CF92DF92EF923F
:1029B000FF920F931F93CF93DF9300D000D0CDB73A
:1029C000DEB75C016A017B01FC0185818130E9F49D
:1029D000848181FF1AC0F50183899489A589B6890C
:1029E00084179507A607B70780F0892B8A2B8B2BB6
:1029F00009F472C0F5014284538464847584B7017C
:102A0000A601C501DFDE811102C080E066C0F501CC
:102A1000838D948DC114D104E104F10469F44789D4
:102A2000508D618D728DD5D6882379F3F501178A83
:102A3000108E118E128E37C0F50146815781608548
:102A400071859E012F5F3F4F26D48823F1F2498183
:102A50005A816B817C81F501838D948DFC012789DE
:102A6000203129F408EF1FEF20E030E004C008EF28
:102A70001FEF2FEF3FE0401751076207730798F4ED
:102A8000A8D6882309F4C1CFF50146815781608516
:102A900071850FEF1FEF2FEF3FE0838D948DE8D40A
:102AA000882309F4B2CFF501C38AD48AE58AF68A6D
:102AB000848180688483C50120DF882309F4A5CF41
:102AC000B701A6014C145D046E047F0410F4B30139
:102AD000A201C50177DE01C081E00F900F900F9039
:102AE0000F90DF91CF911F910F91FF90EF90DF90AA
:102AF000CF90BF90AF907F906F905F904F90089570
:102B0000FF920F931F93CF93DF93EC01F42E80E29B
:102B1000689FF0011124ED5FFC4F8385817129F0DE
:102B2000842F827411F080E051C06A8B809106017D
:102B300090910701A0910801B09109018E879F87AC
:102B4000A88BB98B4489558960E070E0BA0155279C
:102B50004427028D138D20E030E0402B512B622B57
:102B6000732B4F8B588F698F7A8F8385887151F4BF
:102B7000048D158D268D378D0B8B1C8B2D8B3E8BED
:102B800081E00BC0803179F69E012D5E3F4F8B8D29
:102B90009C8D04D4882339F284E08D838F2D8F702F
:102BA0008C831E821F82188619861A861B861C86B5
:102BB0001D86F6FE0AC040E050E0BA01CE01DF916A
:102BC000CF911F910F91FF90EACE81E0DF91CF91DD
:102BD0001F910F91FF900895AF92BF92CF92DF9215
:102BE000EF92FF920F931F93CF93DF93CDB7DEB792
:102BF0002B970FB6F894DEBF0FBECDBF7C016B01E3
:102C0000CA01B22EF70125812111B3C0BE016F5F49
:102C10007F4F02DC882309F4ACC0F601838D948DCC
:102C2000F701948F838FF601168217821086118622
:102C30001286138614861586A12CF601028513854B
:102C40002485358583899489A589B689081719074C
:102C50002A073B07E0F545E0369527951795079538
:102C60004A95D1F70F70C60163DD009709F481C062
:102C7000FC012081222311F0253EB9F4A1100EC0E1
:102C8000F701028B40910601509107016091080104
:102C90007091090146875787608B718BFC01808199
:102CA000AA24A3948111C9CF12C04BE050E0BC010B
:102CB000CE0101960E94F323892B09F0BECF8B2D04
:102CC0008073803309F455C04B2D602F4FC08B2D7E
:102CD0008271823109F04DC0AA2039F061E0C7014C
:102CE00083DB8C01009771F444C0F601858182304A
:102CF00009F43FC0C60119DB8823D9F1F701128A14
:102D000003E013E080E2F80111928A95E9F78BE085
:102D1000FE013196D80101900D928A95E1F7E0917C
:102D2000FA02F091FB02309739F0B801625F7F4FF1
:102D3000C8014096099509C081E298E2F801918B9B
:102D4000808B80E098E097878687F8018089918959
:102D5000938B828B918F808F86859785978B868BBF
:102D600002D2882331F04B2DF7016289C701C8DEFA
:102D700001C080E02B960FB6F894DEBF0FBECDBF2A
:102D8000DF91CF911F910F91FF90EF90DF90CF9047
:102D9000BF90AF900895CF93DF93EC0140E050E0F7
:102DA000BA01FDDD882361F061E0CE011DDB0097F3
:102DB00039F025EEFC0120831D82DF91CF91D3C134
:102DC00080E0DF91CF910895CF93DF93CDB7DEB749
:102DD0006D970FB6F894DEBF0FBECDBFAB011C825E
:102DE0001B822BED31E03A8329831E8222E0BC0155
:102DF000CE010196F1DE882321F0CE010196CBDFD2
:102E000001C080E06D960FB6F894DEBF0FBECDBF57
:102E1000DF91CF9108952F923F924F925F926F92E0
:102E20007F928F929F92AF92BF92CF92DF92EF925A
:102E3000FF920F931F93CF93DF9300D000D01F9288
:102E4000CDB7DEB78C017B013A01DC0115968C9180
:102E500015978130C1F414968C9181FF14C082FFC4
:102E60001AC0F801438954896589768982859385DA
:102E7000A485B58584179507A607B70761F0C80133
:102E8000A1DC811108C081E090E0F8019383828386
:102E900080E090E040C163017FC0D8015B968D91D6
:102EA0009C915C97FC01F481F150B501A40129E0EB
:102EB00076956795579547952A95D1F7F423FD8325
:102EC00021E09222FF2309F473C080E092E0881988
:102ED000990956018C159D0508F45C01D8015B9693
:102EE000ED91FC915C9716962D903D904D905C90E5
:102EF0001997B2E02B1A310841085108058404C023
:102F0000220C331C441C551C0A94D2F786859785E5
:102F1000A089B189280E391E4A1E5B1EED812E0E36
:102F2000311C411C511CA114F2E0BF0609F085C000
:102F30008091060190910701A0910801B0910901CB
:102F400082159305A405B50559F48FEF9FEFDC01B9
:102F50008093060190930701A0930801B0930901A3
:102F60009701B201A10180910103909102036CD9F4
:102F7000882309F488CF9EEFF91ACA18DB08F801F4
:102F800082859385A485B5858A0D9B1DA11DB11DE4
:102F900082879387A487B587D8011A968D909D90D4
:102FA000AD90BC901D97C114D10409F076CF86C0B6
:102FB0008114910409F089CF16964D915D916D9120
:102FC0007C911997411551056105710559F4579682
:102FD0008D919D910D90BC91A02D0097A105B105FB
:102FE00031F520C09E012F5F3F4F55D1882309F452
:102FF00050CF89819A81AB81BC81F801238D348DBA
:10300000F9012789203129F448EF5FEF60E070E093
:1030100004C048EF5FEF6FEF7FE084179507A607C6
:10302000B70728F0C80157D981114FCF2CCFF8012D
:1030300086839783A087B18748CF8114910421F5B7
:10304000D8011A964D915D916D917C911D97539683
:103050008D919D910D90BC91A02D481759076A073D
:103060007B0790F080D0882309F40DCF20920601D1
:1030700030920701409208015092090180910003AB
:1030800081608093000307C041E0C201B101A4D078
:10309000882309F4F8CEC4018D5F9C4FD7019C01B1
:1030A0002A0D3B1DFC01E217F30719F04D914193E6
:1030B000FACFE81BF90BEE0EFF1E5FCF53968D91F2
:1030C0009D910D90BC91A02DF80124818815990542
:1030D000AA05BB0538F4838A948AA58AB68A206833
:1030E00024830CC08091FA029091FB02892B31F06D
:1030F0006114710419F02068F8012483D801149632
:103100008C9183FD02C0C30106C0C801F6DB882391
:1031100009F4B9CEF8CF0F900F900F900F900F9049
:10312000DF91CF911F910F91FF90EF90DF90CF90A3
:10313000BF90AF909F908F907F906F905F904F90D7
:103140003F902F900895CF93DF931F92CDB7DEB7B6
:10315000698341E050E0BE016F5F7F4F5CDE0F90FE
:10316000DF91CF91089580910003882389F14091E8
:10317000060150910701609108017091090123E057
:1031800033E080910103909102035ED8882311F10E
:103190004091FC025091FD026091FE027091FF028D
:1031A000411551056105710589F023E033E08091F7
:1031B00001039091020348D8882361F01092FC0229
:1031C0001092FD021092FE021092FF021092000374
:1031D00081E0089580E00895CF92DF92EF92FF9210
:1031E000CF936B017C01C42F809106019091070160
:1031F000A0910801B09109018C159D05AE05BF0590
:10320000C9F0B1DF811102C080E01AC023E033E0D1
:10321000B701A60180910103909102030E94A310BF
:10322000882391F3C0920601D0920701E092080131
:10323000F0920901809100038C2B8093000381E0C0
:10324000CF91FF90EF90DF90CF900895CF92DF92D3
:10325000EF92FF926B017C0186DF8823B1F0E3E0FF
:10326000F3E0119285E0E330F807D9F7C092060148
:10327000D0920701E0920801F092090180910003C9
:1032800081608093000381E001C080E0FF90EF90B7
:10329000DF90CF9008958F929F92AF92BF92CF927E
:1032A000DF92EF92FF920F931F93CF93DF938C01E6
:1032B0006A017B01E901FC0181859285A385B485C2
:1032C0000196A11DB11D84179507A607B70710F435
:1032D00080E057C0F80143895489658976898789D8
:1032E000803129F4BB27AF2D9E2D8D2D09C0D7012C
:1032F000C60127E0B695A795979587952A95D1F7AA
:103300004C015D01840E951EA61EB71EC501B401B9
:103310008090060190900701A0900801B0900901EB
:10332000681579058A059B0589F4F801878980313C
:1033300091F4DD24EE24FF24F601EE0FFF1FED5F74
:10334000FC4F80819181A0E0B0E016C040E044DFF6
:103350008111EBCFBDCFE894C7F8DD24EE24FF2424
:10336000F601EE0FFF1FEE0FFF1FED5FFC4F808198
:103370009181A281B381BF7088839983AA83BB8323
:1033800081E0DF91CF911F910F91FF90EF90DF903F
:10339000CF90BF90AF909F908F9008954F925F9283
:1033A0006F927F92AF92BF92CF92DF92EF92FF9295
:1033B0000F931F93CF93DF9300D000D0CDB7DEB72C
:1033C0008C0149835A836B837C835901C12CD12C96
:1033D0007601412C42E0542E612C712C49815A8196
:1033E0006B817C819E012F5F3F4FC80154DF882392
:1033F00059F1D301C201F801058404C0880F991F57
:10340000AA1FBB1F0A94D2F7C80ED91EEA1EFB1EC4
:1034100049815A816B817C818789803129F488EFC9
:103420009FEFA0E0B0E004C088EF9FEFAFEFBFE0F8
:10343000481759076A077B0788F2F501C082D182D5
:10344000E282F38281E001C080E00F900F900F9044
:103450000F90DF91CF911F910F91FF90EF90DF9030
:10346000CF90BF90AF907F906F905F904F900895F6
:103470004F925F926F927F928F929F92AF92BF9284
:10348000CF92DF92EF92FF920F931F93CF93DF9330
:10349000EC016A017B0128013901423051056105C7
:1034A000710508F473C049855A856B857C854F5F2B
:1034B0005F4F6F4F7F4F4C155D056E057F0508F41C
:1034C00065C08B889C88AD88BE888F89803129F43F
:1034D00077276F2D5E2D4D2D09C0B701A601E7E0BE
:1034E0007695679557954795EA95D1F7840E951E81
:1034F000A61EB71E40910601509107016091080178
:103500007091090184169506A606B70671F48F8995
:10351000803191F4DD24EE24FF24F601EE0FFF1F2D
:10352000ED5FFC4F5182408217C040E0C501B401FD
:1035300053DE8111ECCF2AC0E894C7F8DD24EE24D5
:10354000FF24F601EE0FFF1FEE0FFF1FED5FFC4F94
:1035500040825182628273828091000381608093F5
:1035600000038A89823080F08D819E81AF81B88589
:10357000880D991DAA1DBB1D8093FC029093FD022E
:10358000A093FE02B093FF0281E001C080E0DF91D2
:10359000CF911F910F91FF90EF90DF90CF90BF9050
:1035A000AF909F908F907F906F905F904F90089515
:1035B0002F923F924F925F926F927F929F92AF9223
:1035C000BF92CF92DF92EF92FF920F931F93CF9310
:1035D000DF93CDB7DEB760970FB6F894DEBF0FBEAE
:1035E000CDBF5C014D875E876F87788B1901D9014C
:1035F0004D905D906D907C90411451046104710474
:1036000031F0BFEF4B1A5B0A6B0A7B0A10C0FC015A
:103610004080518062807380992493940D851E852B
:103620002F853889013011052105310509F0912CCC
:10363000D50119962D913D914D915C911C972F5F6D
:103640003F4F4F4F5F4F29873A874B875C87730106
:1036500062011D821E821F821886F5018185928576
:10366000A385B4850D811E812F8138850817190720
:103670002A073B0708F054C029853A854B855C85AD
:103680002C153D054E055F0550F4A2E0CA2ED12C45
:10369000E12CF12CB2E04B2E512C612C712C9E01AF
:1036A0002F5F3F4FB701A601C501F5DD8823C1F1AA
:1036B00049815A816B817C81D701C6010196A11D88
:1036C000B11D452B462B472B19F02C013D010FC096
:1036D000AC01BD0144195509660977090D851E85A0
:1036E0002F853889401751076207730779F02D81BC
:1036F0003E814F8158852F5F3F4F4F4F5F4F2D8346
:103700003E834F8358876C017D01A7CF0FEF1FEFDA
:103710002FEF3FE0B701A601C501AADE811117C056
:1037200080E03FC0D701C6010197A109B1098D838F
:103730009E83AF83B88797018601AC01BD01C501A7
:1037400097DE882369F3CD80DE80EF80F8844C1407
:103750005D046E047F0430F3D1014D915D916D9154
:103760007C91411551056105710599F4F101408283
:10377000518262827382992099F0FFEF4F1A5F0A9B
:103780006F0A7F0AD5014D925D926D927C921397DC
:1037900007C093018201C5016BDE8111E7CFC0CF65
:1037A00081E060960FB6F894DEBF0FBECDBFDF910B
:1037B000CF911F910F91FF90EF90DF90CF90BF902E
:1037C000AF909F907F906F905F904F903F902F9021
:1037D0000895AF92BF92CF92DF92EF92FF920F9334
:1037E0001F93CF93DF9300D000D0CDB7DEB75C013D
:1037F0006A017B0182E090E0A0E0B0E0F501808307
:103800009183A283B3839E012F5F3F4FB701A6012F
:10381000C50141DD882309F100E010E09801B701FE
:10382000A601C50125DE8823C1F0C980DA80EB80BE
:10383000FC80F5018789803129F488EF9FEFA0E0B3
:10384000B0E004C088EF9FEFAFEFBFE0C816D90625
:10385000EA06FB06C0F281E001C080E00F900F9005
:103860000F900F90DF91CF911F910F91FF90EF90EC
:10387000DF90CF90BF90AF9008958F929F92AF92BC
:10388000BF92CF92DF92EF92FF920F931F93CF934D
:10389000DF93EC01142F7093020360930103442320
:1038A00039F1453010F080E0ECC040E060E070E0BD
:1038B000CB0192DC8823B9F320E1129FF00111249F
:1038C000EF54FB4F80818F7771F784859585A685AE
:1038D000B78584369105A105B10528F3C084D1844C
:1038E000E284F384C114D104E104F10421F4DBCFB8
:1038F000C12CD12C760140E0C701B6016DDC8823D4
:1039000091F280910E0390910F038115924059F628
:1039100030911303332339F28091110390911203F4
:10392000892B09F4C0CF20911003222309F4BBCFC7
:103930003A8B2C831D8630E041E050E06D85062FE8
:10394000CA01062E02C0880F991F0A94E2F72817B1
:10395000390731F081E0860F8D87683078F3A3CF87
:103960002091190330911A032115310519F040E017
:1039700050E008C02091270330912803409129038B
:1039800050912A032D833E834F83588780911103E2
:103990009091120346015701880E991EA11CB11C7B
:1039A0008B8A9C8AAD8ABE8AE0911403F09115033C
:1039B000F98FE88FA0911303B0E0F7D3680D791D5C
:1039C0008A1D9B1D6A8F7B8F8C8F9D8F15E0EE0F5C
:1039D000FF1F1A95E1F7E150FE4FEF2FFF27E69505
:1039E000DC01CB018E0F9F1FA11DB11D8E879F870C
:1039F000A88BB98B809016039090170381149104C3
:103A000019F0A12CB12C08C08090230390902403BE
:103A1000A0902503B0902603A7019601281B390B1F
:103A20004A0B5B0BDA01C901880D991DAA1DBB1D4C
:103A300004C0B695A795979587950A95D2F789877B
:103A40009A87AB87BC87853F3FE09307A105B10507
:103A500010F48CE014C0853F9F4FA105B10510F410
:103A600080E10DC080912F0390913003A09131032C
:103A7000B09132038A8F9B8FAC8FBD8F80E28F8B8A
:103A800081E0DF91CF911F910F91FF90EF90DF9038
:103A9000CF90BF90AF909F908F9008958091330505
:103AA00090E020913405821B9109089520913405FE
:103AB00080913305281750F4E22FF0E0EB5CFA4FC9
:103AC000808190E02F5F2093340508958FEF9FEF62
:103AD0000895E091340580913305E81730F4F0E063
:103AE000EB5CFA4F808190E008958FEF9FEF08958F
:103AF0000895CF92DF92EF92FF920F931F93CF938F
:103B0000DF937C01CB018A0120910F05222389F0EC
:103B1000EB016B01C40ED51ECC15DD0561F069917A
:103B2000D701ED91FC910190F081E02DC70109953D
:103B3000F3CF642F8FD1C801DF91CF911F910F91E7
:103B4000FF90EF90DF90CF900895CF93DF931F9277
:103B5000CDB7DEB7698320910F052223D1F02091E4
:103B60001005203240F021E030E0FC013383228355
:103B700080E090E014C080911105E82FF0E0EE5E47
:103B8000FA4F998190838F5F809311058093100580
:103B900004C061E0CE0101965DD181E090E00F901C
:103BA000DF91CF910895FC011382128248EE53E019
:103BB00060E070E0448355836683778383EE91E011
:103BC00091838083089510923405109233051092EA
:103BD00011051092100581C081E080930F0560935C
:103BE000320510921105109210050895F5CF0F932C
:103BF000062F21E04091100562E175E080913205C9
:103C0000D2D0109211051092100510920F050F914D
:103C100008958F929F92AF92BF92CF92DF92EF92D0
:103C2000FF920F931F93CF93DF93EC01F62ED42EC8
:103C300048015901EE2009F1CFDF1E2D143008F0A4
:103C400013E01150B8F0E881F98128E0129FB0012B
:103C50001124A501940104C05695479537952795E1
:103C60006A95D2F7CA01B9010190F081E02DCE0129
:103C70000995E7CF60E0CE01BADF4D2D413208F063
:103C800040E22C2D65E375E08F2D45D01092340570
:103C900080933305DF91CF911F910F91FF90EF90AB
:103CA000DF90CF90BF90AF909F908F900895CF926C
:103CB000EF920F931F93C22EE12C00E010E09801C9
:103CC000A8DF1F910F91EF90CF90089521E0EFCFE3
:103CD00061E08DCF83E095E066CF1092C20581E070
:103CE0008093C0051092BF0561E082E10E947007D9
:103CF00061E083E10E947007E9EBF0E080818E7F54
:103D0000808380818D7F808388E48093B80085E400
:103D10008093BC000895413208F043C09091C205E1
:103D20009111FCCF91E09093C2052093C0052FEF35
:103D30002093550510929A05240F2093990590938E
:103D4000C1059091C105880F892B8093C105809191
:103D5000BF05813061F41092BF058091C105809349
:103D6000BB008091BC0083FDF8CF85EC01C085EEDF
:103D70008093BC008091C2058130E1F380919A0567
:103D8000841710F440919A052BE935E0FB01D90125
:103D90008A2F821B841718F48D918193F9CF842F79
:103DA000089580E008950F93413208F04AC0909141
:103DB000C2059111FCCF92E09093C2050093C0051B
:103DC0009FEF9093550510929A0540939905FB013A
:103DD0006BE975E0DB019A2F961B941718F491910B
:103DE0009D93F9CF1092C1059091C105880F892B41
:103DF0008093C1058091BF05813061F41092BF05A9
:103E00008091C1058093BB008091BC0083FDF8CFF9
:103E100085EC01C085EE8093BC00222321F08091C7
:103E2000C2058230E1F3809155058F3F61F08091AA
:103E30005505803251F080915505803341F483E07F
:103E400007C081E005C080E003C082E001C084E0DB
:103E50000F910895613298F42091C205243089F4BD
:103E600060937705FC0189E795E0DC012A2F281B88
:103E7000261718F421912D93F9CF80E0089581E061
:103E8000089582E0089585ED8093BC008091BC0088
:103E900084FDFCCF1092C205089585EC8093BC0090
:103EA0001092C20508951F920F920FB60F9211241F
:103EB0002F933F934F935F936F937F938F939F9332
:103EC000AF93BF93EF93FF938091B900887F8036C3
:103ED00009F49DC070F5883209F45CC090F480311B
:103EE00009F455C038F4882309F4F3C0883009F484
:103EF0004EC0F2C0883109F44DC0803209F45EC072
:103F0000EBC0803409F469C050F4803309F456C022
:103F1000883309F0E1C080935505BFDFDDC08035EF
:103F200009F44FC0883509F45DC0883409F0D4C065
:103F3000D2C0883909F4C3C0A8F4883709F467C02F
:103F400038F4883609F463C0803709F460C0C4C00F
:103F5000883809F4B4C0803909F45FC0803809F0AA
:103F6000BBC05BC0803B09F482C038F4803A09F4DE
:103F700066C0883A09F47BC0AFC0803C09F4A3C096
:103F8000883C09F4A0C0883B09F486C0A5C0809194
:103F9000C10510C090919A0580919905981770F508
:103FA000E0919A0581E08E0F80939A05F0E0E55646
:103FB000FA4F80818093BB0085EC82C080935505C9
:103FC0008AC0E0919A0581E08E0F80939A058091D6
:103FD000BB00F0E0E556FA4F808390919A058091FE
:103FE00099056AC0E0919A0581E08E0F80939A0549
:103FF0008091BB00F0E0E556FA4F80838091C005C8
:10400000811169C081E08093BF0584EA5DC083E0CF
:104010008093C20510925605CFCF8091560580320D
:1040200008F04DC0E091560581E08E0F8093560553
:104030008091BB00F0E0E95AFA4F8083BDCF2DDFBD
:1040400080915605803230F4E0915605F0E0E95A4F
:10405000FA4F10826091560570E0E091BB05F09137
:10406000BC0587E595E009951092560535C084E0BA
:104070008093C2051092780510927705E091BD05F6
:10408000F091BE05099580917705811105C081E009
:104090008093770510927905E091780581E08E0F85
:1040A00080937805F0E0E758FA4F80818093BB0059
:1040B0009091780580917705981708F47DCF85E871
:1040C0008093BC0009C085EC8093BC001092C205AF
:1040D00003C010925505D7DEFF91EF91BF91AF91CC
:1040E0009F918F917F916F915F914F913F912F9110
:1040F0000F900FBE0F901F901895CF93CFB7F894E5
:104100008091C305811127C0EAE9F0E08491E6E8D7
:10411000F0E09491E82FF0E0EE0FFF1FE854FF4F1E
:10412000A591B4918C91892321F461E08AE00E94E9
:10413000700761E08AE00E9437078CB580618CBD12
:104140008CB580648CBD61E08DE00E94370761E032
:104150008BE00E9437078091C3058F5F8093C30572
:10416000CFBFCF910895A1E21A2EAA1BBB1BFD0160
:104170000DC0AA1FBB1FEE1FFF1FA217B307E40746
:10418000F50720F0A21BB30BE40BF50B661F771F9E
:10419000881F991F1A9469F760957095809590957E
:1041A0009B01AC01BD01CF0108950FD0A59F900DDB
:1041B000B49F900DA49F800D911D11240895EE0FC2
:1041C000FF1F0590F491E02D0994A29FB001B39FC9
:1041D000C001A39F700D811D1124911DB29F700D10
:1041E000811D1124911D0895E89409C097FB3EF4A8
:1041F00090958095709561957F4F8F4F9F4F992334
:10420000A9F0F92F96E9BB279395F69587957795B1
:104210006795B795F111F8CFFAF4BB0F11F460FF71
:104220001BC06F5F7F4F8F4F9F4F16C0882311F0C9
:1042300096E911C0772321F09EE8872F762F05C0DD
:10424000662371F096E8862F70E060E02AF09A9578
:10425000660F771F881FDAF7880F9695879597F96D
:10426000089597F99F6780E870E060E008959FEFF8
:1042700080EC089500240A941616170618060906FD
:10428000089500240A9412161306140605060895CC
:10429000092E0394000C11F4882352F0BB0F40F454
:1042A000BF2B11F460FF04C06F5F7F4F8F4F9F4F94
:1042B000089557FD9058440F551F59F05F3F71F016
:1042C0004795880F97FB991F61F09F3F79F087957D
:1042D0000895121613061406551FF2CF4695F1DF06
:1042E00008C0161617061806991FF1CF8695710596
:1042F000610508940895E894BB2766277727CB01CA
:1043000097F908950BD0C4CFB5DF28F0BADF18F0C5
:10431000952309F0A6CFABCF1124EECFCADFA0F3CF
:10432000959FD1F3950F50E0551F629FF001729F4A
:10433000BB27F00DB11D639FAA27F00DB11DAA1F69
:10434000649F6627B00DA11D661F829F2227B00DB6
:10435000A11D621F739FB00DA11D621F839FA00D41
:10436000611D221F749F3327A00D611D231F849F91
:10437000600D211D822F762F6A2F11249F575040E8
:104380008AF0E1F088234AF0EE0FFF1FBB1F661F83
:10439000771F881F91505040A9F79E3F510570F03C
:1043A00060CFAACF5F3FECF3983EDCF3869577951C
:1043B0006795B795F795E7959F5FC1F7FE2B880F37
:1043C000911D9695879597F90895EF920F931F93F6
:1043D000CF93DF93E80147FF02C034E101C034E02E
:1043E000E42FFF27E7FDF095F7FF03C0F195E19576
:1043F000F109E32E022F2E2FAE012CD2CE01DF9138
:10440000CF911F910F91EF900895CF93DF9382305A
:10441000910510F482E090E0E091C605F091C705A7
:1044200020E030E0A0E0B0E0309739F140815181E8
:1044300048175907B8F04817590771F482819381DA
:10444000109729F013969C938E9312972CC09093FB
:10445000C7058093C60527C02115310531F04217E5
:10446000530718F0A901DB0101C0EF019A01BD015A
:10447000DF010280F381E02DD7CF21153105F9F05E
:10448000281B390B2430310580F48A819B8161150A
:10449000710521F0FB019383828304C09093C705CB
:1044A0008093C605FE01329644C0FE01E20FF31F61
:1044B0008193919322503109398328833AC0209106
:1044C000C4053091C505232B41F4209102013091A0
:1044D00003013093C5052093C4052091000130915C
:1044E00001012115310541F42DB73EB7409104017A
:1044F00050910501241B350BE091C405F091C505D1
:10450000E217F307A0F42E1B3F0B2817390778F0AA
:10451000AC014E5F5F4F2417350748F04E0F5F1F09
:104520005093C5054093C4058193919302C0E0E088
:10453000F0E0CF01DF91CF910895CF93DF93009703
:1045400009F487C0FC01329713821282C091C6051C
:10455000D091C705209781F420813181280F391F20
:104560008091C4059091C5058217930779F5F09362
:10457000C505E093C4056DC0DE0120E030E0AE1754
:10458000BF0750F412964D915C9113979D01411510
:10459000510509F1DA01F3CFB383A2834081518140
:1045A000840F951F8A179B0771F48D919C91119729
:1045B000840F951F02969183808312968D919C9112
:1045C0001397938382832115310529F4F093C7054E
:1045D000E093C6053EC0D9011396FC93EE93129763
:1045E0004D915D91A40FB51FEA17FB0779F4808107
:1045F0009181840F951F0296D90111969C938E93F9
:104600008281938113969C938E931297E0E0F0E061
:104610008A819B81009719F0FE01EC01F9CFCE0150
:10462000029628813981820F931F2091C405309111
:10463000C5052817390769F4309729F41092C70582
:104640001092C60502C013821282D093C505C09392
:10465000C405DF91CF910895A0E0B0E0E1E3F3E27B
:1046600052C3EC01CB01209711F4CFDEB4C0FE01A0
:10467000E60FF71F9E0122503109E217F30708F4F5
:10468000A8C0D9010D911C91119706171707B0F01A
:104690000530110508F49BC0A80144505109461784
:1046A000570708F494C002501109061B170B019319
:1046B00011936D937C93CF0140DF89C05B01A01AF9
:1046C000B10A4E01800E911EA091C605B091C7059A
:1046D000612C712C60E070E0109709F449C0A815B6
:1046E000B905C9F5ED90FC901197670142E0C40E41
:1046F000D11CCA14DB0478F147018A189B086401B5
:1047000042E0C40ED11C1296BC9012971396AC9145
:10471000B5E0CB16D10440F0B282A38391828082AF
:10472000D9018D939C9309C00E5F1F4F0E0D1F1D65
:10473000F90111830083EB2DFA2F6115710531F01A
:10474000DB011396FC93EE93129741C0F093C705DB
:10475000E093C6053CC06D917C9111976616770673
:1047600008F43B01BD0112960D90BC91A02DB4CF71
:104770006091C4057091C50568157905E9F468165E
:104780007906D0F440910001509101014115510585
:1047900041F44DB75EB76091040170910501461B6D
:1047A000570BE417F507A8F4F093C505E093C4058B
:1047B000F901918380830BC028DE7C01009749F0CA
:1047C000A801BE011DD0CE01B8DEC70104C0CE01D4
:1047D00002C080E090E0CDB7DEB7EEE0B0C281E08D
:1047E00090E0F894C3C2FB01DC0104C08D910190FC
:1047F000801921F441505040C8F7881B990B089547
:10480000FB01DC0102C001900D9241505040D8F7ED
:104810000895FC018191861721F08823D9F7992703
:1048200008953197CF010895FB01DC0101900D92AD
:104830000020E1F70895FB01DC014150504048F0B1
:1048400001900D920020C9F701C01D9241505040C7
:10485000E0F708956F927F929F92AF92BF92CF92AE
:10486000DF92EF92FF920F931F93CF93DF93CDB719
:10487000DEB729970FB6F894DEBF0FBECDBF6A0131
:10488000B22E102F0C3320F4FF24F394F00E02C04C
:104890004CE3F42E0F2D27E0AE014F5F5F4F57D151
:1048A0007981272F2970213031F0E1FC06C0E0FC2E
:1048B00006C060E005C06DE203C06BE201C060E2CB
:1048C000AE2DA07173FF36C0662311F084E001C0E5
:1048D00083E08B1510F4B81A01C0B12CA1110BC0E4
:1048E000F6018B2D90E2882319F091938150FBCF34
:1048F000CB0CD11CB12C662331F0F60160839601FC
:104900002F5F3F4F6901C6010396E2FE05C02EE40A
:10491000F601208331E404C02EE6F601208331E65F
:1049200031832283FC012B2D30E22223F1F13193DC
:104930002150FBCF72FF40C0662311F084E001C01C
:1049400083E08B1510F4B81A01C0B12CA1110BC073
:10495000F6018B2D90E2882319F091938150FBCFC3
:10496000CB0CD11CB12C662331F0F601608396018B
:104970002F5F3F4F6901C6010396E2FE07C029E49D
:10498000F60120832EE4218326E406C029E6F60101
:1049900020832EE6218326E62283FC012B2D30E2A4
:1049A000222319F031932150FBCFFC01EB0DF11DB7
:1049B00010828EEF9FEFB7C0B1E0611101C0B0E08F
:1049C0004B2F50E01816190624F49C012F5F3F4F1F
:1049D00002C021E030E0240F351F112329F0412FC0
:1049E00050E04F5F5F4F02C040E050E0420F531F66
:1049F0002B2D30E04217530714F4B41A01C0B12C28
:104A00002E2D287159F4F6012B2D30E2222319F0B6
:104A100031932150FBCFCB0CD11CB12CBB2331F0F7
:104A2000F601608396012F5F3F4F6901A1110BC012
:104A3000F6012B2D30E3222319F031932150FBCFC7
:104A4000CB0CD11CB12CF80E0A81372F3071A32E5C
:104A500074FF03C0013309F4FA941F142CF42F2DB2
:104A6000293018F028E001C021E0682F392F97FF86
:104A700002C060E030E0462F532F612C712C3EE2E3
:104A8000932EBC01621B71099B01DC01A41BB50BB9
:104A9000E1E0F0E0EC0FFD1FAE0FBF1FE12EF12CA7
:104AA000F194E194F1084F3FFFEF5F0731F4F60115
:104AB0009082B6016F5F7F4F6B01841795074CF0B2
:104AC0002417350734F4BD01660D771DFB011181F4
:104AD00001C010E341505109FFEF6F1A7F0AB60180
:104AE0006F5F7F4F4E155F0524F0F60110836B0159
:104AF000DACF4817590739F4063320F4053319F48F
:104B0000A11001C011E3F6011083FB018B2D90E28F
:104B1000882319F091938150FBCFFB01EB0DF11D20
:104B2000108280E090E029960FB6F894DEBF0FBEA9
:104B3000CDBFDF91CF911F910F91FF90EF90DF904C
:104B4000CF90BF90AF909F907F906F900895283046
:104B500008F027E03327DA01990F311D87FD9160B6
:104B600000966105710539F432602E5F3D9330E3A4
:104B70002A95E1F708959F3F30F08038710561056F
:104B800009F03C5F3C5F3D93913008F08068911DD7
:104B9000DF93CF931F930F93FF92EF92192F987F7C
:104BA0009695E92F96959695E90FFF27E45DFE4FC0
:104BB00099273327EE24FF24A701E70105900894E5
:104BC000079428F4360FE71EF81E491F511D660F83
:104BD000771F881F991F0694A1F70590079428F462
:104BE000E70EF81E491F561FC11D770F881F991F1A
:104BF000661F0694A1F70590079428F4F80E491F44
:104C0000561FC71FD11D880F991F661F771F069457
:104C1000A1F70590079420F4490F561FC71FD81F0E
:104C2000990F661F771F881F0694A9F78491109526
:104C3000177041F0D695C79557954795F794E79427
:104C40001A95C1F7E2EDF0E0689415901591359151
:104C50006591959105907FE27395E118F10A430BF8
:104C6000560BC90BD009C0F7E10CF11E431F561FAC
:104C7000C91FD01D7EF4703311F48A95E6CFE894F5
:104C8000015030F0080F0AF40027021708F4202F13
:104C90002395022F7A3328F079E37D932A95E9F75B
:104CA00010C07D932A9589F6069497956795379558
:104CB00017951794E118F10A430B560BC90BD0094D
:104CC00098F023957E9173957A3308F070E37C9386
:104CD0002013B8F77E9170617D9330F0839571E376
:104CE0007D9370E32A95E1F71124EF90FF900F91E7
:104CF0001F91CF91DF91992787FD909508952F926D
:104D00003F924F925F926F927F928F929F92AF925B
:104D1000BF92CF92DF92EF92FF920F931F93CF93A8
:104D2000DF93CDB7DEB7CA1BDB0B0FB6F894DEBF3F
:104D30000FBECDBF09942A88398848885F846E8465
:104D40007D848C849B84AA84B984C884DF80EE80AF
:104D5000FD800C811B81AA81B981CE0FD11D0FB6B8
:104D6000F894DEBF0FBECDBFED01089511E0C4ED94
:104D7000D1E003C0FE0125DA2296C63DD107D1F766
:044D8000F894FFCFD5
:104D84000000C8052000FFFFFFFF4F6F6F70732CFA
:104D9400206E6F204144584C33343520646574656B
:104DA40063746564202E2E2E20436865636B20791E
:104DB4006F757220776972696E6721005344202DE4
:104DC40020696E697469616C697A6174696F6E20B7
:104DD4006661696C65642100746573742E6373760F
:104DE40000582C592C5A006572726F72206F7065CE
:104DF4006E696E6720746573742E747874002C0069
:104E04000000000013011A01190114061406000021
:104E14000000DC024504600279026B02BB020D0A49
:104E2400006E616E00696E66006F7666002E00414A
:104E340044584C3334350000000000CE07D4071921
:104E44000168091A0800000000E109F709D60A31CF
:104E54000A3A0A120A2F0000000000A318450400B1
:104E6400000000A51D791D4E1D561D691D781D00ED
:00000001FF
